:101C000002C0302E3031112420E0A0E6B0E001C047
:101C10001D92A83CB207E1F75EC0CF93DF939C0111
:101C200040E853E0F9012F5F3F4F908146BD56BD1C
:101C3000C39AC19AB99AC19808B2E3E0C0E2DC2F16
:101C4000DA95F1F790FB01F8E695979508BAB9F7A0
:101C500046BD16BC962F921B980F21F7DF91CF91AE
:101C60000895282FE82FF92F8FEF9FEF31918327C9
:101C700038E0AC014170552796958795452B21F0AA
:101C800041E0842740EA9427315099F73E2F321BD8
:101C9000361760F308951F93CF93DF93EC01162F4F
:101CA0006EEF610FDEDF9E01210F311DF9013297CA
:101CB000808321503109F9019083612FCE01DF919A
:101CC000CF911F91AACFFC018181805881836283CB
:101CD00065E0CF01E0CFF8940FB6F894A89581B5F0
:101CE000886181BD11BC0FBEC598BD98B59918C05B
:101CF000E0E0F0E0D591DF3F99F4D491DD3C81F450
:101D0000EF91E43551F4EF91EF3439F4EF91EF3482
:101D100021F4EF91E23409F403C0EFE0F0E009941C
:101D2000CFE5D2E0DEBFCDBF80E090E02AD1782EB3
:101D3000BB9A80E8682E93E0292E33243A942DEC48
:101D4000422E34E0532E42E0E42E4CE1F42E53E0D8
:101D5000C52E5CE1D52E64E0A62E6CE1B62E75E0B2
:101D6000872E7CE1972E47E250E061EA70E080EA3E
:101D700090E00FD166BC26BCC398C098B8982FE2FB
:101D800080E8B099FECF2150F1F721E2B099089494
:101D90008795C8F72A95F1F766BC16BC8093C700F3
:101DA0009091A00097117CC09091A100903109F012
:101DB00077C09091A500903109F072C00091C600E3
:101DC000182F66E280EA90E04CDF8017910709F057
:101DD00067C08091A2009091A30098278927982737
:101DE000813E2BE1920708F097C09C012F713327A9
:101DF000232B09F091C0009721F43092A600409265
:101E0000A70050E0BC01607CA0E6B0E030E020E03C
:101E1000F901E60FF71FE491ED932F5F3F4F203458
:101E20003105B1F7282F261B30E0E6E0E50FF0E0A2
:101E3000E056FF4F2034310550F44191D901A05AAA
:101E4000BF4F4C935F5F2F5F3F4F503299F7E62FA4
:101E5000F72FC0E6D0E014D003E007BFE89540E4D8
:101E60000FD00990199001E007BFE89532964250D3
:101E7000B9F706D0E62FF72F05E007BFE89506C0B3
:101E80001091370011701130D9F308951124850F86
:101E9000911D503208F4B6CF68E080EA90E0FBDE96
:101EA0008091C00087115FCFD091C100D33019F06D
:101EB000D63009F058CF0091C6001091C70066E0F7
:101EC00080EC90E0CEDE8017910709F04CCF209196
:101ED000C2003091C3003227232732278091C500EA
:101EE000D330F9F0D63009F03ECF232B09F03BCFA9
:101EF0009091C400892BD1F468E080EC90E08DDEF5
:101F0000F8E128E20FB6F894A895F1BD0FBE21BD07
:101F1000EFE0F0E0099427CF62E080EA90E0D3DEC2
:101F2000BFCF2115310599F4813029F063E080ECB1
:101F300090E0C9DE18CF92E09093C2001092C300E7
:101F40008093C40067E080EC90E0A5DE0CCF2130E8
:101F5000310509F008CF823049F75092C200F701ED
:101F600084918093C300F60184918093C400F501AD
:101F700084918093C500F40184918093C60069E048
:101F8000E2CFE199FECF9FBB8EBBE09A99278DB33C
:101F900008956817790768F4FB01DC01E40FF51F69
:101FA000A40FB51F02C002900E9241505040D8F7C6
:101FB000089500C0FB01DC0102C001900D92415068
:061FC0005040D8F708951F
:0400000300001C00DD
:00000001FF
