:1000000010C01FC080C61DC01CC0FEC51AC019C0CC
:1000100018C017C016C015C014C013C0FFC5302EBD
:10002000303211241FBECFE5D2E0DEBFCDBF20E0CD
:10003000A0E6B0E001C01D92AC3CB207E1F785D666
:1000400072CDDECFFB0120813181A9014827CA0191
:1000500028E0AC014170552796958795452B21F0F6
:1000600051E0852750EA9527215099F791838083A5
:100070000895982F96959575880F8A7A982B892FD1
:10008000869586958373990F990F9C7C892B829511
:100090000895CF92DF92EF92FF920F931F93CF9329
:1000A000DF938C01FF24F39492E0D92E24E5C22E35
:1000B000EE24EA94D62FD80FF80180810F5F1F4FEE
:1000C000C091A500CF5FCF719091A400C917E1F353
:1000D000D0DFEC2FF0E0EC57FF4F8083C093A500FA
:1000E0008091A70080FD16C08091A70082FDFCCF03
:1000F000F89412BEFCBCF3BED8BE89B7826089BF3B
:10010000CDB8EFB8EEB8B99A8091A700816080931E
:10011000A7007894D013D0CFDF91CF911F910F918A
:10012000FF90EF90DF90CF900895BF92CF92DF9233
:10013000EF92FF920F931F93CF93DF9300D0CDB731
:10014000DEB78C01F62E8EEFE82EE60E8FEF9FEFD6
:100150009A838983B02E6801BE016F5F7F4FF601DD
:1001600081916F016FDF8C2D8B198E15A8F339816A
:100170002A81C8018F0D911DFC01329730830197B0
:10018000FC0120836F2DC80184DF0F900F90DF9159
:10019000CF911F910F91FF90EF90DF90CF90BF9084
:1001A0000895FC01818180588183628365E0CF01DD
:1001B000BCCF9FB7F894BC9AC49820E12A95F1F778
:1001C000BC98C49888E18A95F1F786B322E92A950C
:1001D000F1F700C09FBF80710895CF93DF93D8E0FF
:1001E000C0E0C695E6DF8111C068D150D1F78C2FF1
:1001F000DF91CF9108959FB7F894BC9AC498EFEB24
:10020000F3E03197F1F700C00000BC98C498FAEB16
:10021000FA95F1F700C086B3E3E3F3E03197F1F725
:1002200000C000009FBF8095807108958FB7F8943B
:10023000BC9AC49890EA9A95F1F7BC98C4989AE150
:100240009A95F1F700C08FBF08958FB7F894BC9AC4
:10025000C49890E19A95F1F7BC98C4989AEA9A9557
:10026000F1F700C08FBF0895CF93DF93C82FD8E078
:10027000C0FF07C0EADFC695D150D1F7DF91CF911B
:100280000895D4DFF8CF0F931F93CF93DF93EC0142
:1002900085E5EADF8E01085F1F4FFE012196808110
:1002A000E3DFC017D107C9F7DF91CF911F910F91FD
:1002B000089571E0BA9ABC980000000000009FD435
:1002C000BA989DD4A894000000000000B29B92D47C
:1002D000B2F08894B4990894771F60F7BA9A803086
:1002E00011F0BC9801C0BC9A00000000000087D447
:1002F000BA98A89400000000B29B7CD480D400007F
:100300000000BA9A872F9927089580E208950894EB
:10031000881F01C0880FB9F0BA9A000000000000E1
:1003200018F40000BC9802C0BC9A00C068D4BA9807
:10033000A894000000000000B29B5CD412F488274F
:1003400012C05DD4E7CFBA9A00000000BC9857D421
:1003500099278827BA98A8940000B29B4BD47AF3C7
:10036000B49B81E04CD400000000BA9A089581E06B
:100370000895BA9ABC9A43D4BA9841D4B29B3AD45D
:10038000BC983DD478940895F894BA9A38D4BC981F
:1003900036D4BA9834D4B29B2DD4BC9A30D4B7CFCB
:1003A00081E00895F894B29B25D4BC9A28D4AFCFAD
:1003B00081E00895BC98BA98C498C2988827992774
:1003C000B49B0895B29B089581E0089581E008955B
:1003D0002F923F924F925F926F927F928F929F9255
:1003E000AF92BF92CF92DF92EF92FF920F931F9343
:1003F000CF93DF93CDB7DEB764970FB6F894DEBF27
:100400000FBECDBF082FD6DF8CEECCDF87EF7FDFAE
:100410008DEEBADF80E04DDF8C8B80E04ADF8B8B86
:1004200080E047DF8D8380E044DF90E0B0E0A0E033
:100430004C015D011CE0880C991CAA1CBB1C1A9580
:10044000D1F780E036DF90E0B0E0A0E06C017D0104
:1004500084E0CC0CDD1CEE1CFF1C8A95D1F7C8286B
:10046000D928EA28FB2880E024DF82958F70C82AEB
:1004700080E01FDF782E81E01CDF7BDF4091A80049
:100480005091A90070E060E0D701C60124E0B59565
:10049000A795979587952A95D1F74C015D01841A08
:1004A000950AA60AB70A89829A82AB82BC8233E097
:1004B000F594E794D794C7943A95D1F7440F551F14
:1004C000661F771FD701C601841B950BA60BB70BC0
:1004D00089879A87AB87BC872091AA003091AB00AF
:1004E000032E000C440B550BBC01CD01D4D86987F9
:1004F0007A878B879C874B015C01FBE0B594A794BE
:1005000097948794FA95D1F729813A814B815C8140
:10051000CA01B901C0D89B01AC01ACE05595479523
:1005200037952795AA95D1F729833A834B835C8326
:100530002091AC003091AD00032E000C440B550B04
:1005400069817A818B819C81A6D869837A838B8328
:100550009C83BEE09595879577956795BA95D1F779
:10056000680D791D8A1D9B1D6093C8007093C9009A
:100570008093CA009093CB00013081F1023009F4DE
:10058000DBC125E030E040E050E085D86B017C0124
:1005900030E8C30ED11CE11CF11CCD2CDE2CEF2C5D
:1005A000FF24E7FCFA94C701B60164960FB6F894ED
:1005B000DEBF0FBECDBFDF91CF911F910F91FF9096
:1005C000EF90DF90CF90BF90AF909F908F907F90F3
:1005D0006F905F904F903F902F9008958090B4005F
:1005E0009090B5009A8689860091B6001091B70068
:1005F0002090B8003090B900A090BA00B090BB0035
:10060000BE86AD868090BC009090BD00988A8F8693
:10061000A090BE00B090BF00BA8AA98A4B015C01CD
:10062000B594A794979487942AEF921AA108B108D9
:10063000D501C40142E0B595A795979587954A9550
:10064000D1F789839A83AB83BC839C01AD01CD0133
:10065000B90121D82B013C018091B2009091B300E7
:100660009C01990F440B550B29833A834B835C8380
:10067000A30192016DE055954795379527956A95A9
:10068000D1F769817A818B819C8105D86B017C01CE
:1006900073E0F594E794D794C7947A95D1F7809155
:1006A000B0009091B1009C01990F440B550B298328
:1006B0003A834B835C83A501940169817A818B81A4
:1006C0009C81E9D7DC01CB01B595A79597958795D6
:1006D0008C0D9D1DAE1DBF1D6C017D01F2E1F594D9
:1006E000E794D794C794FA95D1F7D701C6019058EB
:1006F000AF4FBF4F89839A83AB83BC832091AE00F9
:100700003091AF0050E040E0BC01CD01C4D76B0197
:100710007C01AFE0F594E794D794C794AA95D1F7FC
:10072000C114D104E104F10409F43DCFA301920105
:100730006BE055954795379527956A95D1F72983AD
:100740003A834B835C839101330C440B550B6981D5
:100750007A818B819C819FD72B013C01C801110FAD
:10076000AA0BBB0B89839A83AB83BC83A50194013D
:10077000BC01CD0190D7AB01BC01440F551F661FD2
:10078000771F440D551D661D771DF2E07595679521
:1007900057954795FA95D1F79C89892E912CB12CC4
:1007A000A12CACE0880C991CAA1CBB1CAA95D1F703
:1007B0002B89822F90E0B0E0A0E014E0880F991F11
:1007C000AA1FBB1F1A95D1F71D8112951F70812B8F
:1007D00088299929AA29BB2989849A842401990CFA
:1007E00066087708320155244424440E551E661EBF
:1007F000771E2CE075946794579447942A95D1F707
:100800009C01AD01240D351D461D571D29833A83DA
:100810004B835C832BEC33EF4FEF5FEF69817A8181
:100820008B819C8138D7805B9C4397FD7BC04B01BB
:100830005C01880C991CAA1CBB1CC501B401A70152
:10084000960142D749015A01A5019401A3E05695AA
:10085000479537952795AA95D1F729833A834B83F6
:100860005C83CA01B90117D7DC01CB011DE0B69545
:10087000A795979587951A95D1F789839A83AB8326
:10088000BC83A989BA899D01BB0F440B550B6981B3
:100890007A818B819C81FFD66B017C010CE0F59401
:1008A000E794D794C7940A95D1F7A501940182E003
:1008B00056954795379527958A95D1F729833A8399
:1008C0004B835C838F8598899C01990F440B550B52
:1008D00069817A818B819C81DED6DC01CB012DE0A0
:1008E000B595A795979587952A95D1F78C0D9D1D60
:1008F000AE1DBF1D2D853E85A901330F660B770BFD
:10090000840F951FA61FB71F6C017D0134E0F5947D
:10091000E794D794C7943A95D1F7C80CD91CEA1C30
:10092000FB1C41CEA7019601CFD649015A01880C84
:10093000991CAA1CBB1C88CF2091C5004B015C01EF
:100940003CE2931A31E0A30AB108C72CD12CDC2C6D
:10095000CC24F12CE12C5EE0CC0CDD1CEE1CFF1C49
:100960005A95D1F78091C40090E064E0880F991FF8
:100970006A95E1F7322F3F70832BB0E0A0E074E17D
:10098000880F991FAA1FBB1F7A95D1F7C81AD90AD9
:10099000EA0AFB0A8091C60090E0E4E0880F991F04
:1009A000EA95E1F722952F70822B9C0150E040E000
:1009B00029833A834B835C83A501940169817A8101
:1009C0008B819C8168D6C61AD70AE80AF90A30E4F6
:1009D000D30EE11CF11CD701C601FFE0B595A79528
:1009E00097958795FA95D1F789839A83AB83BC83D2
:1009F0008091C300282F880F330B440B550B2D8398
:100A00003E834F835887A50194016D817E818F813C
:100A1000988541D6DC01CB011BE0B595A79597954C
:100A200087951A95D1F79C01AD0130584F4F5F4F14
:100A30002D833E834F8358878091C700282F880FCE
:100A4000330B440B550B29873A874B875C87A501ED
:100A5000940169857A858B859C851DD669877A87FF
:100A60008B879C879B01AC010AE05595479537958C
:100A700027950A95D1F76D817E818F8198850BD658
:100A8000DC01CB012AE0B595A795979587952A9526
:100A9000D1F79C01AD01405E5F4F2D833E834F83B4
:100AA00058872091C1003091C200032E000C440BE6
:100AB000550B6D817E818F819885EDD56D837E8309
:100AC0008F8398879B01AC01305E4F4F5F4F6EE084
:100AD00055954795379527956A95D1F769817A811C
:100AE0008B819C81D8D56B017C01DC01CB017FE03F
:100AF000B595A795979587957A95D1F789839A8328
:100B0000AB83BC839C01AD01CD01B901C4D54B01C0
:100B10005C01E7E0B594A79497948794EA95D1F7A0
:100B200089829A82AB82BC822091C000022E000C86
:100B3000330B440B550BC501B401ADD5DC01CB0122
:100B4000F4E0B595A79597958795FA95D1F7C81ACA
:100B5000D90AEA0AFB0AF7FE03C0C12CD12C7601A0
:100B600021E0C216D104E10429E1F2062CF0C12CE7
:100B7000D12CE12C39E1F32ED701C6012CE0B5953B
:100B8000A795979587952A95D1F789839A83AB8303
:100B9000BC83BC01CD01CED620E030E040E85AE372
:100BA00069837A838B839C8369817A818B819C8121
:100BB0004FD720E030E048EC52E469837A838B839E
:100BC0009C8369817A818B819C8142D769837A83F6
:100BD0008B839C8369817A818B819C817AD669839E
:100BE0007A838B839C83A981BA816D01BB0FEE0848
:100BF000FF08D9CCB29BFECFA8940895089598E041
:100C00009A95F1F7089508958F938FB78F9382B7D0
:100C10008E5C82BF8F918FBF8F9118951F921FB6E8
:100C20001F9211248F939F93EF93FF938091A700BE
:100C300080FF4FC0C39A8091A70081FF16C08091AA
:100C4000A7008D7F8093A7008BEF8EB98091A600BF
:100C5000880F880F880F87608FB9FF91EF919F9160
:100C60008F911F901FBE1F9018959091A5008091A5
:100C7000A4009817C9F08091A70082608093A70014
:100C8000E091A400EF5FEF71E093A400F0E0EC5777
:100C9000FF4F80818093A6008BEF8EB98091A600D4
:100CA000869586958068D8CFC3988091A7008E7F5F
:100CB0008093A70013BE88B3836088BB87B38C7F03
:100CC00087BB1DB880E28ABF8BB780628BBFA89AB2
:100CD000C4CFC3988091A7008B7F8093A700E09139
:100CE0008300EF5FEF71809182008E1304C08091CA
:100CF000A7008860DDCFE09383008FB1F0E0EE596C
:100D0000FF4F8083D7CF8F938FB78F93B09919C040
:100D100081E182BF82B7885682BF81E08CBD83BFEC
:100D200082E088BF89B7826089BF84E58DB987EF8B
:100D30008EB98BB78F7D8BBF8091A7008460809325
:100D4000A7008F918FBF8F911895CDB7DEB7CD5487
:100D5000D1400FB6F894DEBF0FBECDBFF89480E04F
:100D600090E0D4D4CA5BDE4F8883C654D140BA9891
:100D7000BC98C4988FEB93E00197F1F700C0000096
:100D800010928200109283001092A4001092A5008D
:100D9000BB9AC39888B3836088BB87B38C7F87BBBB
:100DA0001DB880E28ABF8BB780628BBFA89A789407
:100DB0008E010F5D1E4FD8011B96C45BDE4FB983B9
:100DC000A883CC54D1403E01B2E06B0E711CA895B3
:100DD00090918300809182009817C9F3EFE0F7E2C9
:100DE0003197F1F700C0000090918300809182005C
:100DF000981769F36E01F6ECCF1AFEEFDF0AC60111
:100E00000796F6015601218121938E179F07D9F786
:100E100090918300809182009817D1F3E091820035
:100E2000EF5FEF71E0938200F0E0EE59FF4F8081B9
:100E300020D9D60117968C9317979C91CA5BDE4FE9
:100E4000B881C654D1409B13CFCFF60191812DEFCD
:100E5000290F223010F0963039F6D60116968C9074
:100E6000982E2FEF3FEFF80131832083760136E093
:100E7000E30EF11CB801D6018D916D01E3D8EC149D
:100E8000FD04C1F7F801808191818816990609F067
:100E9000ABCFD5011296ED90FC901397FE24EF2472
:100EA000FE241596DC90159714969C91CA5BDE4F34
:100EB000B881C654D140B083F5018181843009F4F2
:100EC00057C0863009F4E7C2833009F08DCFD801CE
:100ED00011968C931197E114F10451F4B1E0DB12F7
:100EE00083CF82E0F80182831382148267E03DC0E1
:100EF000F1E0EF16F104D1F022E0E216F10409F07E
:100F000073CFB1E0DB1270CF82E0F801828380E022
:100F100090E0FCD3CA5BDE4F8883C654D140D80131
:100F200013961C92139714968C93E0CF32E0D31251
:100F30005BCF84E012968C931297EEE1F0E0E4919F
:100F40001396EC931397EFE1F0E0E4911496EC9391
:100F50001497E0E2F0E0E4911596EC931597E1E246
:100F6000F0E0E4911696EC9369E0C801DED83CCF3E
:100F7000F8018183E114F10409F086C0F1E0DF1289
:100F800033CF82E0D80112968C93129713961C925D
:100F9000139780E214968C9367E0C801C6D8C70106
:100FA00080549241039708F01FCFF501858182306C
:100FB00009F01ACF84E0D80112968C9380916000DA
:100FC00081114EC0F7D98CEEEDD988E8A0D98DEE0D
:100FD000DBD928EAC22E20E0D22E80E06AD9F601C1
:100FE00081936F01F0ECCF16F0E0DF06B1F781E0FE
:100FF00060D98093C100BDD98CEED4D981EE87D958
:101000008DEEC2D981ECA82E80E0B82E98ECC92EC6
:1010100090E0D92E80E04DD9D5018D935D01CA169F
:10102000DB06C1F781E045D98093C900A2D98CEED7
:10103000B9D982EF6CD981E06AD99BD98CEEB2D94B
:1010400084EF65D987E263D994D98CEEABD985EF6B
:101050005ED980EA5CD98DD98CD981E0809360001B
:1010600080E0B0E4EB16B2E1FB0639F081E0E1E4A8
:10107000EE16E2E1FE0609F082E0AAD95DD420E096
:1010800030E048EC52E4D8C2B1E0EB16F10409F0CC
:1010900001C1E1E0DE12A8CE82E0D80112968C9365
:1010A000129713961C92F894FE0131964F0110820C
:1010B0001182128213821482158216821782108680
:1010C0003996E017F10799F796D8811110C07894F6
:1010D00080E0D4019C91903109F48F5FB9E08B0ED0
:1010E000911C80169106A9F7F801848355CFF3016E
:1010F000C85BDE4F1882C854D140CE5BDE4F688299
:10110000C254D140C95BDE4F7882C754D140212CF4
:1011100088E0CE5BDE4FA881C254D140C95BDE4F70
:10112000B881C754D14001900D928A95E1F763D8F8
:1011300080EF9AD83324339455245394CE5BDE4FFA
:10114000C880C254D140C95BDE4FD880C754D1405B
:10115000412C2FD8C55BDE4F8883CB54D14029D892
:10116000C55BDE4FF881CB54D140FF2309F4D3C1D6
:10117000811171C0D6018C9185298C93D6018C91F7
:10118000852109F466C061D83394550C29F4BFEF6A
:10119000CB1ADB0A55245394E1E43E12DACF822DB8
:1011A00090E069E070E066D2F401E80FF91F20E1F9
:1011B00020832394822D90E069E070E05BD2880D5B
:1011C000991D0196CE5BDE4FE881C254D140C95BC8
:1011D000DE4FF881C754D14041100EC09E01275FF9
:1011E0003F4F90E029123AC07894442009F470CF20
:1011F00061E1C801D6D7D3CEC85BDE4F4882C85460
:10120000D140CE5BDE4F8883C254D140C95BDE4FF4
:101210009883C754D1407CCFC85BDE4FF881C85457
:10122000D140F31104C09529D6019C93A7CFC85B88
:10123000DE4FB881C854D140B31538F4852D809560
:101240009823F6019083432C99CF952109F096CFEE
:10125000FACFECD799CF44244A94A1CFF90137971C
:1012600080E0519148E0652F6827869560FF02C0B5
:101270006CE8862756954150B1F7E217F30789F7D6
:10128000275F3F4F4081481302C09F5FABCF44248C
:101290004A94AACF97013A952132310508F046C108
:1012A000F4E0DF12A1CD88E0D80112968C9312975A
:1012B000FF24C70169E070E0DDD1E1E0F0E0EC0F70
:1012C000FD1FE80FF91F8081803109F0E1C0C701DF
:1012D00069E070E0CFD1FC01319621E030E02C0FC5
:1012E0003D1FE20FF31F139681918D93C45BDE4F78
:1012F00048815981CC54D140A417B507A9F76DE0B6
:1013000034CE52E0D51270CDD80112968C93FF24C2
:10131000C70169E070E0AED1E1E0F0E0EC0FFD1F45
:10132000E80FF91F8081803109F0B2C0F894C7013D
:1013300069E070E09FD17C01BFEFEB1AFB0AE1E0AE
:10134000F0E0EC0FFD1FEE0EFF1E55D7882309F4C9
:101350009CC0C70198D784E487D72BD78823E9F3AB
:101360004AD7882309F491C0C7018DD78EEB7CD76B
:1013700034D7F82ECF5CDE4F8883C153D1402DD7B0
:10138000E82ECE5CDE4F8883C253D14026D7CD5C99
:10139000DE4F8883C353D14020D7CC5CDE4F888397
:1013A000C453D1401AD7CB5CDE4F8883C553D1409C
:1013B00014D7CA5CDE4F8883C653D1400ED7C95CB0
:1013C000DE4F8883C753D14008D7C85CDE4F88837F
:1013D000C853D14002D7FE01EF5CFE4FAF01485F1A
:1013E0005F4F90E0319128E0632F6927969560FF69
:1013F00002C06CE8962736952150B1F74E175F076B
:1014000089F789133FC09E2D8F2D78949C0150E061
:1014100040E0CE5BDE4F288339834A835B83C2542E
:10142000D140CA01B90186D220E030E040E85DE356
:10143000CE5BDE4F6883C254D140CD5BDE4F7883F4
:10144000C354D140CC5BDE4F8883C454D140CB5BC6
:10145000DE4F9883C554D140CE5BDE4F68817981E1
:101460008A819B81C254D140F3D2D80113969C93B8
:10147000139714968C93149715967C93159716963C
:101480006C9372CD8EEF9FEFC0CF8DEF9FEFBDCFEE
:1014900062E0C80125C0F8018183E114F10411F56F
:1014A00091111CC0F1E0DF1219C068E0C501F1D54F
:1014B0002FE738E341E0215030404040E1F700C0E1
:1014C0000000F894E2E4EF93EFE4EF93EFE4EF939E
:1014D000E4E5EF93E0E0FEE0099486CC63E0C5012B
:1014E00060D682CCEA94EF2809F07ECC911111C02D
:1014F0008FEF8D0D8E3F68F46D2D80E090E00ED162
:1015000068E0C501C6D5CA5BDE4FD882C654D1405B
:101510006BCC63E0BECFD6019C91882309F47CCECE
:10152000852D80959823F601908328CE970132501F
:101530002132310508F4E5CEB0E2EB16B2E1FB064C
:1015400009F02DCDE2E0DE124FCCD80112968C933B
:1015500080916100811113C0F89486E423D781E162
:10156000D6D607D77894BFE7E0E2F5E0B150E04087
:10157000F040E1F700C0000081E080936100F89442
:1015800019D787E40FD780E094D6282F2695C65B1D
:10159000DE4F2883CA54D140879588278795C75B3B
:1015A000DE4F8883C954D14081E083D6D82EE82EFF
:1015B000E694C75BDE4F48815981C954D1404E0D36
:1015C000511D7A01D6D67894C701B0E0A0E0CE5B79
:1015D000DE4F88839983AA83BB83C254D140B7016D
:1015E000CD01A8D120E030E0A901D0FE04C020E068
:1015F00030E040E05FE3CE5BDE4F6883C254D14011
:10160000CD5BDE4F7883C354D140CC5BDE4F888303
:10161000C454D140CB5BDE4F9883C554D140CE5BE0
:10162000DE4F688179818A819B81C254D14085D007
:101630002AE939E949E95FE3CE5BDE4F6883C254AA
:10164000D140CD5BDE4F7883C354D140CC5BDE4FBD
:101650008883C454D140CB5BDE4F9883C554D140BE
:10166000CE5BDE4F688179818A819B81C254D140F3
:10167000C8D0FBCE0024552704C0080E591F880F80
:10168000991F009729F076956795B8F37105B9F71A
:10169000802D952F0895EE27FF27AA27BB2708C086
:1016A000A20FB31FE41FF51F220F331F441F551F46
:1016B000969587957795679598F37040A9F7009769
:1016C00099F7BD01CF010895A1E21A2EAA1BBB1BF9
:1016D000FD010DC0AA1FBB1FEE1FFF1FA217B307FE
:1016E000E407F50720F0A21BB30BE40BF50B661F14
:1016F000771F881F991F1A9469F7609570958095D8
:1017000090959B01AC01BD01CF010895E199FECFF9
:101710009FBB8EBBE09A99278DB30895262FE19940
:10172000FECF1CBA9FBB8EBB2DBB0FB6F894E29ABE
:10173000E19A0FBE019608955058BB27AA270ED0F4
:101740004DC13ED130F043D120F031F49F3F11F430
:101750001EF433C10EF4E095E7FB29C1E92F4FD108
:1017600080F3BA17620773078407950718F071F4BE
:101770009EF567C10EF4E0950B2EBA2FA02D0B013C
:10178000B90190010C01CA01A0011124FF27591BC6
:1017900099F0593F50F4503E68F11A16F040A22FCC
:1017A000232F342F4427585FF3CF4695379527953D
:1017B000A795F0405395C9F77EF41F16BA0B620B3C
:1017C000730B840BBAF09150A1F0FF0FBB1F661F83
:1017D000771F881FC2F70EC0BA0F621F731F841FC6
:1017E00048F4879577956795B795F7959E3F08F0EC
:1017F000B3CF9395880F08F09927EE0F97958795AB
:1018000008950CD0EBC0E3D040F0DAD030F021F4F2
:101810005F3F19F0CCC0511115C1CFC0F0D098F383
:101820009923C9F35523B1F3951B550BBB27AA2761
:1018300062177307840738F09F5F5F4F220F331FD3
:10184000441FAA1FA9F333D00E2E3AF0E0E830D09F
:1018500091505040E695001CCAF729D0FE2F27D0A2
:10186000660F771F881FBB1F261737074807AB0770
:10187000B0E809F0BB0B802DBF01FF2793585F4FE5
:101880002AF09E3F510568F092C0DCC05F3FECF348
:10189000983EDCF3869577956795B795F7959F5FAA
:1018A000C9F7880F911D9695879597F90895E1E0FE
:1018B000660F771F881FBB1F621773078407BA075D
:1018C00020F0621B730B840BBA0BEE1F88F7E095B8
:1018D000089504D06894B111B5C0089598D088F0E7
:1018E0009F5790F0B92F9927B751A0F0D1F0660F0C
:1018F000771F881F991F1AF0BA95C9F712C0B13027
:1019000081F09FD0B1E008959CC0672F782F882781
:10191000B85F39F0B93FCCF3869577956795B39565
:10192000D9F73EF490958095709561957F4F8F4FD4
:101930009F4F0895E89409C097FB3EF490958095D9
:10194000709561957F4F8F4F9F4F9923A9F0F92F85
:1019500096E9BB279395F695879577956795B79503
:10196000F111F8CFFAF4BB0F11F460FF1BC06F5FE9
:101970007F4F8F4F9F4F16C0882311F096E911C0FB
:10198000772321F09EE8872F762F05C0662371F01C
:1019900096E8862F70E060E02AF09A95660F771F30
:1019A000881FDAF7880F9695879597F9089597F924
:1019B0009F6780E870E060E008959FEF80EC0895F5
:1019C00000240A941616170618060906089500241E
:1019D0000A9412161306140605060895092E039498
:1019E000000C11F4882352F0BB0F40F4BF2B11F40C
:1019F00060FF04C06F5F7F4F8F4F9F4F089557FD6B
:101A00009058440F551F59F05F3F71F04795880F6C
:101A100097FB991F61F09F3F79F087950895121603
:101A200013061406551FF2CF4695F1DF08C01616AF
:101A300017061806991FF1CF869571056105089460
:101A40000895E894BB2766277727CB0197F9089577
:101A50000AD0C4CFB5DF28F0BADF18F0952309F01B
:101A6000A6CFABCFEFCFCBDFA8F39923D9F3552384
:101A7000C9F3950F50E0551FAA27EE27FF27BB2774
:101A800000240894679520F4E20FF31FB41F0A1E88
:101A9000220F331F441FAA1F6695A9F7779530F4CC
:101AA000F30FB41F0A1E121E08F46395330F441F70
:101AB000AA1F221F769599F7879520F4B40F0A1E66
:101AC000121E631F440FAA1F221F331F8695A9F7FA
:101AD000862F712D602D11249F5750408AF0E1F020
:101AE00088234AF0EE0FFF1FBB1F661F771F881F5A
:101AF00091505040A9F79E3F510570F058CFA2CFAA
:101B00005F3FECF3983EDCF3869577956795B79544
:101B1000F795E7959F5FC1F7FE2B880F911D96956E
:0A1B2000879597F90895F894FFCF18
:00000001FF
