:1000000010C01FC035C11DC01CC0C9C11AC019C055
:1000100018C017C016C015C014C013C04BC1302E75
:10002000303311241FBECFE5D2E0DEBFCDBF20E0CC
:10003000A0E6B0E001C01D92AC3CB207E1F764D687
:1000400056CDDECF982F96959575880F8A7A982B86
:10005000892F869586958373990F990F9C7C892BA0
:1000600082950895CF92DF92EF92FF920F931F93A4
:10007000CF93DF938C01FF24F39492E0D92E24E5F3
:10008000C22EEE24EA94D62FD80FF80180810F5F9C
:100090001F4FC0918600CF5FCF7190918700C91725
:1000A000E1F3D0DFEC2FF0E0EA59FF4F8083C093FB
:1000B00086008091650080FD16C08091650082FDFC
:1000C000FCCFF89412BEFCBCF3BED8BE89B78260E8
:1000D00089BFCDB8EFB8EEB8B99A8091650081605C
:1000E000809365007894D013D0CFDF91CF911F918A
:1000F0000F91FF90EF90DF90CF900895282FE82F79
:10010000F92F8FEF9FEF3191832738E0AC014170D9
:10011000552796958795452B21F041E0842740EAA5
:100120009427315099F73E2F321B361760F308950C
:100130001F93CF93DF93EC01162F6EEF610FDEDF7D
:100140009E01210F311DF901329780832150310921
:10015000F9019083612FCE01DF91CF911F9182CF62
:10016000FC01818180588183628365E0CF01E0CF0B
:100170008FB7F894BC9AC49890E19A95F1F7BC981F
:10018000C4989AEA9A95F1F700C08FBF08958FB787
:10019000F894BC9AC49890EA9A95F1F7BC98C498E0
:1001A0009AE19A95F1F700C08FBF0895CF93DF933E
:1001B000C82FD8E0C0FF07C0DBDFC695D150D1F70C
:1001C000DF91CF910895E3DFF8CF0F931F93CF9383
:1001D000DF93EC0185E5EADF8E01085F1F4FFE012A
:1001E00021968081E3DFC017D107C9F7DF91CF9156
:1001F0001F910F9108959FB7F894BC9AC498EFEBA4
:10020000F3E03197F1F700C00000BC98C498FAEB16
:10021000FA95F1F700C086B3E3E3F3E03197F1F725
:1002200000C000009FBF8095807108959FB7F8942B
:10023000BC9AC49820E12A95F1F7BC98C49888E14B
:100240008A95F1F786B322E92A95F1F700C09FBF9E
:1002500080710895CF93DF93D8E0C0E0C695E6DFC4
:100260008111C068D150D1F78C2FDF91CF910895C3
:100270008F938FB78F93B09919C081E182BF82B7F6
:10028000885682BF81E08CBD83BF82E088BF89B77A
:10029000826089BF84E58DB987EF8EB98BB78F7D7A
:1002A0008BBF809165008460809365008F918FBFC4
:1002B0008F9118951F921FB61F9211248F939F93B1
:1002C000EF93FF938091650080FF4FC0C39A8091A8
:1002D000650081FF16C0809165008D7F8093650069
:1002E0008BEF8EB980916400880F880F880F87602C
:1002F0008FB9FF91EF919F918F911F901FBE1F901B
:10030000189590918600809187009817C9F0809188
:100310006500826080936500E0918700EF5FEF7178
:10032000E0938700F0E0EA59FF4F808180936400FA
:100330008BEF8EB980916400869586958068D8CFC2
:10034000C398809165008E7F8093650013BE88B34B
:10035000836088BB87B38C7F87BB1DB880E28ABF70
:100360008BB780628BBFA89AC4CFC3988091650079
:100370008B7F80936500E091C900EF5FEF71809102
:10038000C8008E1304C0809165008860DDCFE093C3
:10039000C9008FB1F0E0E857FF4F8083D7CF8F932C
:1003A0008FB78F9382B78E5C82BF8F918FBF8F91F3
:1003B000189598E09A95F1F708950895B29BFECFAD
:1003C000A89408950895BC98BA98C498C2988827AC
:1003D0009927B49B0895B29B089581E0089581E028
:1003E0000895F894B29BEADFBC9AE3DF1BC081E07A
:1003F0000895F894BA9ADDDFBC98DBDFBA98D9DFAC
:10040000B29BDCDFBC9AD5DF0DC081E00895BA9ABB
:10041000BC9ACFDFBA98CDDFB29BD0DFBC98C9DFE2
:10042000789408950894881F01C0880FB9F0BA9A8B
:1004300000000000000018F40000BC9802C0BC9A44
:1004400000C0B7DFBA98A894000000000000B29B7B
:10045000B5DF12F4882712C0ACDFE7CFBA9A0000EC
:100460000000BC98A6DF99278827BA98A8940000B6
:10047000B29BA4DF7AF3B49B81E09BDF0000000015
:10048000BA9A089581E0089571E0BA9ABC98000084
:10049000000000008EDFBA988CDFA89400000000F6
:1004A0000000B29B8BDFB2F08894B4990894771F58
:1004B00060F7BA9A803011F0BC9801C0BC9A000075
:1004C0000000000076DFBA98A89400000000B29BFC
:1004D00075DF6FDF00000000BA9A872F9927089513
:1004E00080E208952F923F924F925F926F927F9297
:1004F0008F929F92AF92BF92CF92DF92EF92FF9234
:100500000F931F93CF93DF93CDB7DEB764970FB6EA
:10051000F894DEBF0FBECDBF082F55DF8EEE61DF32
:1005200087EF80DF8FEE65DF80E0AEDF8C8B80E0D1
:10053000ABDF8B8B80E0A8DF8D8380E0A5DF90E0D0
:10054000B0E0A0E04C015D011CE0880C991CAA1CE5
:10055000BB1C1A95D1F780E097DF90E0B0E0A0E0F7
:100560006C017D0184E0CC0CDD1CEE1CFF1C8A9527
:10057000D1F7C828D928EA28FB2880E085DF8295B2
:100580008F70C82A80E080DF782E81E07DDF3FDF3A
:100590004091A8005091A90070E060E0D701C60129
:1005A00024E0B595A795979587952A95D1F74C01A5
:1005B0005D01841A950AA60AB70A89829A82AB82DB
:1005C000BC8233E0F594E794D794C7943A95D1F779
:1005D000440F551F661F771FD701C601841B950B5B
:1005E000A60BB70B89879A87AB87BC872091AA0097
:1005F0003091AB00032E000C440B550BBC01CD0118
:1006000014D869877A878B879C874B015C01FBE054
:10061000B594A79497948794FA95D1F729813A8154
:100620004B815C81CA01B90100D89B01AC01ACE0EF
:100630005595479537952795AA95D1F729833A83FC
:100640004B835C832091AC003091AD00032E000CF5
:10065000440B550B69817A818B819C81E6D7698334
:100660007A838B839C83BEE0959587957795679574
:10067000BA95D1F7680D791D8A1D9B1D60936000A6
:10068000709361008093620090936300013081F168
:10069000023009F4DBC125E030E040E050E0C5D78E
:1006A0006B017C0130E8C30ED11CE11CF11CCD2C88
:1006B000DE2CEF2CFF24E7FCFA94C701B601649608
:1006C0000FB6F894DEBF0FBECDBFDF91CF911F9163
:1006D0000F91FF90EF90DF90CF90BF90AF909F90E1
:1006E0008F907F906F905F904F903F902F900895E4
:1006F0008090B4009090B5009A8689860091B600EB
:100700001091B7002090B8003090B900A090BA00C6
:10071000B090BB00BE86AD868090BC009090BD00BE
:10072000988A8F86A090BE00B090BF00BA8AA98A2E
:100730004B015C01B594A794979487942AEF921A81
:10074000A108B108D501C40142E0B595A7959795D8
:1007500087954A95D1F789839A83AB83BC839C01A3
:10076000AD01CD01B90161D72B013C018091B200EF
:100770009091B3009C01990F440B550B29833A8348
:100780004B835C83A30192016DE0559547953795A6
:1007900027956A95D1F769817A818B819C8145D7AC
:1007A0006B017C0173E0F594E794D794C7947A9534
:1007B000D1F78091B0009091B1009C01990F440B4A
:1007C000550B29833A834B835C83A501940169818E
:1007D0007A818B819C8129D7DC01CB01B595A795C6
:1007E000979587958C0D9D1DAE1DBF1D6C017D01DC
:1007F000F2E1F594E794D794C794FA95D1F7D7012D
:10080000C6019058AF4FBF4F89839A83AB83BC8397
:100810002091AE003091AF0050E040E0BC01CD012E
:1008200004D76B017C01AFE0F594E794D794C794AB
:10083000AA95D1F7C114D104E104F10409F43DCF24
:10084000A30192016BE055954795379527956A95D9
:10085000D1F729833A834B835C839101330C440B9A
:10086000550B69817A818B819C81DFD62B013C01FC
:10087000C801110FAA0BBB0B89839A83AB83BC837E
:10088000A5019401BC01CD01D0D6AB01BC01440F40
:10089000551F661F771F440D551D661D771DF2E01D
:1008A0007595679557954795FA95D1F79C89892E47
:1008B000912CB12CA12CACE0880C991CAA1CBB1C5F
:1008C000AA95D1F72B89822F90E0B0E0A0E014E048
:1008D000880F991FAA1FBB1F1A95D1F71D8112956A
:1008E0001F70812B88299929AA29BB2989849A8478
:1008F0002401990C66087708320155244424440EDB
:10090000551E661E771E2CE0759467945794479485
:100910002A95D1F79C01AD01240D351D461D571DAB
:1009200029833A834B835C832BEC33EF4FEF5FEFEC
:1009300069817A818B819C8178D6805B9C4397FD0D
:100940007BC04B015C01880C991CAA1CBB1CC50117
:10095000B401A701960182D649015A01A50194016B
:10096000A3E05695479537952795AA95D1F7298302
:100970003A834B835C83CA01B90157D6DC01CB01B2
:100980001DE0B695A795979587951A95D1F7898318
:100990009A83AB83BC83A989BA899D01BB0F440BA1
:1009A000550B69817A818B819C813FD66B017C01DB
:1009B0000CE0F594E794D794C7940A95D1F7A50174
:1009C000940182E056954795379527958A95D1F7FA
:1009D00029833A834B835C838F8598899C01990F87
:1009E000440B550B69817A818B819C811ED6DC0179
:1009F000CB012DE0B595A795979587952A95D1F7C9
:100A00008C0D9D1DAE1DBF1D2D853E85A901330F8B
:100A1000660B770B840F951FA61FB71F6C017D0116
:100A200034E0F594E794D794C7943A95D1F7C80C7D
:100A3000D91CEA1CFB1C41CEA70196010FD6490127
:100A40005A01880C991CAA1CBB1C88CF2091C50098
:100A50004B015C013CE2931A31E0A30AB108C72CB8
:100A6000D12CDC2CCC24F12CE12C5EE0CC0CDD1C58
:100A7000EE1CFF1C5A95D1F78091C40090E064E011
:100A8000880F991F6A95E1F7322F3F70832BB0E0F2
:100A9000A0E074E1880F991FAA1FBB1F7A95D1F7B8
:100AA000C81AD90AEA0AFB0A8091C60090E0E4E07D
:100AB000880F991FEA95E1F722952F70822B9C01F0
:100AC00050E040E029833A834B835C83A501940185
:100AD00069817A818B819C81A8D5C61AD70AE80AD8
:100AE000F90A30E4D30EE11CF11CD701C601FFE086
:100AF000B595A79597958795FA95D1F789839A83A8
:100B0000AB83BC838091C300282F880F330B440B29
:100B1000550B2D833E834F835887A50194016D812A
:100B20007E818F81988581D5DC01CB011BE0B59555
:100B3000A795979587951A95D1F79C01AD013058E7
:100B40004F4F5F4F2D833E834F8358878091C7005F
:100B5000282F880F330B440B550B29873A874B8777
:100B60005C87A501940169857A858B859C855DD517
:100B700069877A878B879C879B01AC010AE0559532
:100B80004795379527950A95D1F76D817E818F819D
:100B900098854BD5DC01CB012AE0B595A7959795B3
:100BA00087952A95D1F79C01AD01405E5F4F2D835B
:100BB0003E834F8358872091C1003091C200032E9D
:100BC000000C440B550B6D817E818F8198852DD54E
:100BD0006D837E838F8398879B01AC01305E4F4F7E
:100BE0005F4F6EE055954795379527956A95D1F7F4
:100BF00069817A818B819C8118D56B017C01DC0134
:100C0000CB017FE0B595A795979587957A95D1F714
:100C100089839A83AB83BC839C01AD01CD01B9016B
:100C200004D54B015C01E7E0B594A79497948794B1
:100C3000EA95D1F789829A82AB82BC822091C0006A
:100C4000022E000C330B440B550BC501B401EDD43F
:100C5000DC01CB01F4E0B595A79597958795FA95BA
:100C6000D1F7C81AD90AEA0AFB0AF7FE03C0C12C59
:100C7000D12C760121E0C216D104E10429E1F2066B
:100C80002CF0C12CD12CE12C39E1F32ED701C60177
:100C90002CE0B595A795979587952A95D1F78983E7
:100CA0009A83AB83BC83BC01CD010ED620E030E03B
:100CB00040E85AE369837A838B839C8369817A81D4
:100CC0008B819C818FD620E030E048EC52E4698330
:100CD0007A838B839C8369817A818B819C8182D684
:100CE00069837A838B839C8369817A818B819C81E0
:100CF000BAD569837A838B839C83A981BA816D017C
:100D0000BB0FEE08FF08D9CCCDB7DEB7CD54D1402C
:100D10000FB6F894DEBF0FBECDBFF89480E090E030
:100D2000BFD4A82EBA98BC98C4988FEB93E00197D3
:100D3000F1F700C000001092C8001092C900109294
:100D4000870010928600BB9AC39888B3836088BBE3
:100D500087B38C7F87BB1DB880E28ABF8BB7806268
:100D60008BBFA89A78942AE331E02C0F3D1F2F5FA8
:100D70003F4F8E010F5D1E4FC8010396AE014E5FBF
:100D80005F4FCA5BDE4F4883C654D140C95BDE4F1C
:100D90005883C754D140C65BDE4F2883CA54D14024
:100DA000C55BDE4F3883CB54D140C45BDE4F8883B4
:100DB000CC54D140C35BDE4F9883CD54D140A8952D
:100DC0009091C9008091C8009817C9F3AFE0B7E2CD
:100DD0001197F1F700C000009091C9008091C80000
:100DE000981769F347E050E0C65BDE4F6881CA544C
:100DF000D140C55BDE4F7881CB54D140CE01865CBB
:100E00009E4F5BD69091C9008091C8009817D1F38E
:100E1000E091C800EF5FEF71E093C800F0E0E857A1
:100E2000FF4F80810FD9CF5BDE4F8883C154D14003
:100E3000C65CDE4F9881CA53D1409A11CDCFC55CB4
:100E4000DE4FD880CB53D1409DEF9D0D923018F0EE
:100E5000B6E0DB12C1CFC05CDE4FE880C054D140A9
:100E6000F82E66E0CE01865C9E4F48D98E159F0510
:100E700009F0B2CFC45CDE4FE880F980CC53D1409A
:100E8000FE24EF24FE24C15CDE4FC880CF53D14046
:100E9000C25CDE4F8881CE53D140F801A082F4E0DD
:100EA000DF1609F454C026E0D21609F4BCC233E0C0
:100EB000D31292CFD8011196DC921197E114F1046C
:100EC00051F4B1E0CB1288CF82E0F8018283138223
:100ED000148267E039C0F1E0EF16F104B1F022E0CE
:100EE000E216F10409F078CFB1E0CB1275CF82E0C1
:100EF000F801828380E090E0D3D3A82ED801139626
:100F00001C92139714968C93E4CF32E0C31264CFF3
:100F100084E012968C931297EEE1F0E0E491139640
:100F2000EC931397EFE1F0E0E4911496EC931497AF
:100F3000E0E2F0E0E4911596EC931597E1E2F0E041
:100F4000E4911696EC9369E0C801F2D845CFF80118
:100F5000D182E114F10409F088C0F1E0CF123CCF56
:100F600082E0D80112968C93129713961C921397D5
:100F700080E214968C9367E0C801DAD8C7018054E8
:100F80009241039708F028CFC15CDE4F8881CF5390
:100F9000D140823009F020CF84E0F8018283809133
:100FA000CA0081114EC00FDA8EEE1BDA88E83ADAF9
:100FB0008FEE1FDA28EAC22E20E0D22E80E064DA1B
:100FC000D6018D936D01B0ECCB16B0E0DB06B1F726
:100FD00081E05ADA8093C1001ADA8EEE02DA81EEED
:100FE00021DA8FEE06DA81ECC82E80E0D82E98EC5C
:100FF000892E90E0992E80E047DAF60181936F0107
:101000008E169F06C1F781E03FDA8093C900FFD9B1
:101010008EEEE7D982EF06DA81E004DAF8D98EEEB7
:10102000E0D984EFFFD987E2FDD9F1D98EEED9D985
:1010300085EFF8D980EAF6D9EAD9E9D981E0809339
:10104000CA0080E0F0E4EF16F2E1FF0639F081E03B
:1010500021E4E21622E1F20609F082E043DA36D416
:1010600020E030E048EC52E4B1C2B1E0EB16F1040C
:1010700009F0D9C0E1E0CE12AFCE82E0D8011296DD
:101080008C93129713961C92F894FE0131964F019F
:10109000CF0128E0FC011192DF01322F1D923A9519
:1010A000E9F7099680179107A9F7A5D881110FC014
:1010B000789480E0F4019081903109F48F5FF9E039
:1010C0008F0E911C80169106A9F7D80152CFCA5BEA
:1010D000DE4FE881C654D140C95BDE4FF881C7546A
:1010E000D140212C4E2E3F2E512C88E0A42DB32D23
:1010F00001900D928A95E1F77ED880EF57D866244B
:101100006394BB24B394C42CD32C712C8FD8CE5BA6
:10111000DE4F8883C254D14089D8CE5BDE4F4881F0
:10112000C254D140442309F4C0C181115AC0D60130
:101130008C918B298C93D6018C918B2109F44FC013
:1011400017D86394BB0C29F4BFEFCB1ADB0ABB247E
:10115000B394E1E46E12DACF852D90E069E070E09F
:1011600053D2F401E80FF91F20E120835394852D19
:1011700090E069E070E048D2880D991D0196E42D59
:10118000F32D711015C0CA5BDE4F8881C654D14063
:10119000C95BDE4F9881C754D14030E0531224C060
:1011A0007894772009F485CF61E1C801D9D7E6CEDC
:1011B000272C482E392E99CF261004C09B29D60102
:1011C0009C93B9CF261438F48B2D80959823F60183
:1011D0009083762CB0CF9B2109F0ADCFFACFD7D733
:1011E000B0CF77247A94B8CFFC0120E0AC01495FFE
:1011F0005F4F719168E0A72FA2272695A0FF02C03C
:10120000ACE82A2776956150B1F7E417F50789F71E
:101210000996FC0132974081421302C03F5FBECF66
:1012200077247A94BDCFC7019A95819708F048C179
:10123000B4E0CB12D1CD88E08283FF24C70169E0FE
:1012400070E0E2D1E1E0F0E0EC0FFD1FE80FF91FE4
:101250008081803109F0E4C0C70169E070E0D4D139
:10126000FC01319621E030E02C0F3D1FE20FF31F0F
:1012700088E0C45BDE4FA881CC54D140C35BDE4F15
:10128000B881CD54D14001900D928A95E1F76DE07F
:101290005BCE32E0C312A0CDD8011296DC92FF24BF
:1012A000C70169E070E0B0D1E1E0F0E0EC0FFD1FB4
:1012B000E80FF91F8081803109F0B2C0F894C701AE
:1012C00069E070E0A1D17C01BFEFEB1AFB0AE1E01D
:1012D000F0E0EC0FFD1FEE0EFF1E8DD7882309F402
:1012E0009CC0C70172D784E461D7A0D78823E9F3F3
:1012F00082D7882309F491C0C70167D78EEB56D7F0
:10130000A9D7F82ECF5CDE4F8883C153D140A2D736
:10131000E82ECE5CDE4F8883C253D1409BD7CD5C94
:10132000DE4F8883C353D14095D7CC5CDE4F888392
:10133000C453D1408FD7CB5CDE4F8883C553D14097
:1013400089D7CA5CDE4F8883C653D14083D7C95C36
:10135000DE4F8883C753D1407DD7C85CDE4F88837A
:10136000C853D14077D7FE01EF5CFE4FAF01485F15
:101370005F4F90E0319128E0632F6927969560FFD9
:1013800002C06CE8962736952150B1F74E175F07DB
:1013900089F789133FC09E2D8F2D78949C0150E0D2
:1013A00040E0CE5BDE4F288339834A835B83C2549F
:1013B000D140CA01B90188D220E030E040E85DE3C5
:1013C000CE5BDE4F6883C254D140CD5BDE4F788365
:1013D000C354D140CC5BDE4F8883C454D140CB5B37
:1013E000DE4F9883C554D140CE5BDE4F6881798152
:1013F0008A819B81C254D140F5D2D80113969C9327
:10140000139714968C93149715967C9315971696AC
:101410006C9399CD8EEF9FEFC0CF8DEF9FEFBDCF37
:1014200062E0C80129C0F801D182E114F10431F56C
:1014300081111EC0F1E0CF121BC068E0CE01865CB6
:101440009E4F10D62FE738E341E021503040404016
:10145000E1F700C00000F894E2E4EF93EFE4EF93CB
:10146000EFE4EF93E4E5EF93E0E0FEE00994B4CC21
:1014700063E0CE01865C9E4F73D6AECCEA94EF2833
:1014800009F0AACC81110FC08FEF8C0D8E3F58F45C
:101490006C2D80E090E00CD168E0CE01865C9E4F20
:1014A000E1D5AC2C99CC63E0BCCFD6019C918823CC
:1014B00009F482CE8B2D80959823F60190833BCE44
:1014C000C7019250819708F4E4CEB0E2EB16B2E186
:1014D000FB0609F053CDE2E0CE127ECCD801129685
:1014E000DC928091CB00811113C0F89486E479D707
:1014F00081E198D78CD77894BFE7E0E2F5E0B1506E
:10150000E040F040E1F700C0000081E08093CB00B4
:10151000F89459D787E465D780E0B6D7282F269569
:10152000C75BDE4F2883C954D140879588278795AC
:10153000C85BDE4F8883C854D14081E0A5D7D82E40
:101540008695C85BDE4FE880F980C854D140E80E2C
:10155000F11C5DD77894C701B0E0A0E0CE5BDE4F10
:1015600088839983AA83BB83C254D140B701CD013C
:10157000ABD150E040E030E020E0D0FC2FE3DA01D6
:10158000F9012B2F342F4F2F5E2FCE5BDE4F688358
:10159000C254D140CD5BDE4F7883C354D140CC5B85
:1015A000DE4F8883C454D140CB5BDE4F9883C55453
:1015B000D140CE5BDE4F688179818A819B81C254A4
:1015C000D14085D02AE939E949E95FE3CE5BDE4FB6
:1015D0006883C254D140CD5BDE4F7883C354D14081
:1015E000CC5BDE4F8883C454D140CB5BDE4F988305
:1015F000C554D140CE5BDE4F688179818A819B8161
:10160000C254D140C8D0F9CE0024552704C0080EDA
:10161000591F880F991F009729F076956795B8F3A1
:101620007105B9F7802D952F0895EE27FF27AA277A
:10163000BB2708C0A20FB31FE41FF51F220F331FE3
:10164000441F551F969587957795679598F3704039
:10165000A9F7009799F7BD01CF010895A1E21A2ECD
:10166000AA1BBB1BFD010DC0AA1FBB1FEE1FFF1F46
:10167000A217B307E407F50720F0A21BB30BE40B96
:10168000F50B661F771F881F991F1A9469F76095DD
:101690007095809590959B01AC01BD01CF01089597
:1016A000E199FECF9FBB8EBBE09A99278DB3089539
:1016B000262FE199FECF1CBA9FBB8EBB2DBB0FB668
:1016C000F894E29AE19A0FBE019608955058BB270C
:1016D000AA270ED04DC13ED130F043D120F031F4D5
:1016E0009F3F11F41EF433C10EF4E095E7FB29C1CE
:1016F000E92F4FD180F3BA17620773078407950764
:1017000018F071F49EF567C10EF4E0950B2EBA2F18
:10171000A02D0B01B90190010C01CA01A0011124F7
:10172000FF27591B99F0593F50F4503E68F11A16A3
:10173000F040A22F232F342F4427585FF3CF469534
:1017400037952795A795F0405395C9F77EF41F1656
:10175000BA0B620B730B840BBAF09150A1F0FF0F20
:10176000BB1F661F771F881FC2F70EC0BA0F621F0C
:10177000731F841F48F4879577956795B795F795FC
:101780009E3F08F0B3CF9395880F08F09927EE0F8E
:101790009795879508950CD0EBC0E3D040F0DAD050
:1017A00030F021F45F3F19F0CCC0511115C1CFC00A
:1017B000F0D098F39923C9F35523B1F3951B550B3A
:1017C000BB27AA2762177307840738F09F5F5F4F14
:1017D000220F331F441FAA1FA9F333D00E2E3AF055
:1017E000E0E830D091505040E695001CCAF729D06F
:1017F000FE2F27D0660F771F881FBB1F26173707BE
:101800004807AB07B0E809F0BB0B802DBF01FF27ED
:1018100093585F4F2AF09E3F510568F092C0DCC09C
:101820005F3FECF3983EDCF3869577956795B79527
:10183000F7959F5FC9F7880F911D9695879597F942
:101840000895E1E0660F771F881FBB1F62177307BB
:101850008407BA0720F0621B730B840BBA0BEE1FD0
:1018600088F7E095089504D06894B111B5C0089543
:1018700098D088F09F5790F0B92F9927B751A0F0D2
:10188000D1F0660F771F881F991F1AF0BA95C9F714
:1018900012C0B13081F09FD0B1E008959CC0672F95
:1018A000782F8827B85F39F0B93FCCF386957795C4
:1018B0006795B395D9F73EF49095809570956195AD
:1018C0007F4F8F4F9F4F0895E89409C097FB3EF4D8
:1018D00090958095709561957F4F8F4F9F4F99237D
:1018E000A9F0F92F96E9BB279395F69587957795FB
:1018F0006795B795F111F8CFFAF4BB0F11F460FFBB
:101900001BC06F5F7F4F8F4F9F4F16C0882311F012
:1019100096E911C0772321F09EE8872F762F05C026
:10192000662371F096E8862F70E060E02AF09A95C1
:10193000660F771F881FDAF7880F9695879597F9B6
:10194000089597F99F6780E870E060E008959FEF41
:1019500080EC089500240A94161617061806090646
:10196000089500240A941216130614060506089515
:10197000092E0394000C11F4882352F0BB0F40F49D
:10198000BF2B11F460FF04C06F5F7F4F8F4F9F4FDD
:10199000089557FD9058440F551F59F05F3F71F05F
:1019A0004795880F97FB991F61F09F3F79F08795C6
:1019B0000895121613061406551FF2CF4695F1DF4F
:1019C00008C0161617061806991FF1CF86957105DF
:1019D000610508940895E894BB2766277727CB0113
:1019E00097F908950AD0C4CFB5DF28F0BADF18F010
:1019F000952309F0A6CFABCFEFCFCBDFA8F3992388
:101A0000D9F35523C9F3950F50E0551FAA27EE27A8
:101A1000FF27BB2700240894679520F4E20FF31FEB
:101A2000B41F0A1E220F331F441FAA1F6695A9F771
:101A3000779530F4F30FB41F0A1E121E08F4639555
:101A4000330F441FAA1F221F769599F7879520F41C
:101A5000B40F0A1E121E631F440FAA1F221F331F3A
:101A60008695A9F7862F712D602D11249F57504020
:101A70008AF0E1F088234AF0EE0FFF1FBB1F661FBC
:101A8000771F881F91505040A9F79E3F510570F075
:101A900058CFA2CF5F3FECF3983EDCF38695779565
:101AA0006795B795F795E7959F5FC1F7FE2B880F70
:101AB000911D9695879597F908956817790768F4A9
:101AC000FB01DC01E40FF51FA40FB51F02C002905B
:101AD0000E9241505040D8F7089500C0FB01DC0140
:101AE00002C001900D9241505040D8F70895F894EB
:021AF000FFCF26
:00000001FF
